:020000040000FA
:04000000A4EF10F069
:101F9400066E8294065099EC12F082841200290E87
:101FA400C26E800EC16EC2500209C26E1200066E6D
:101FB40082908294065099EC12F0828082841200FE
:101FC400938A9388280EC66E000EC56E0C0EC86EDA
:101FD4001200036E71EC10F0010EC56E71EC10F07E
:101FE4000350FE0BC96E71EC10F002C0C9FF120061
:101FF4000E6E0BC007F00E28086E0B28096E0E50EB
:10200400C3EC10F00D50CAEC0FF00C50CAEC0FF0FA
:10201400120094949492949092909292300E726ED4
:10202400550EA76EAA0EA76E0E01FF91090EC66F7C
:102034000A0EC76FFF811200046E010EC56E71ECAB
:1020440010F004C0C9FF71EC10F002C0C9FF71ECBC
:1020540010F003C0C9FF71EC10F0040EC56E12003D
:1020640009C001F00AC002F0036A8E0E046E000E6D
:10207400056E37EC15F001C009F002C00AF003C088
:102084000BF045EF10F0120001500302F3CF05F0FE
:10209400F4CF06F001500402F35006260250030266
:1020A400F350062605C001F006C002F05AEF10F006
:1020B4001200000E026E000E036ED20E1EEC10F023
:1020C400010E026E3F0E036ED20E1EEC10F0020ED5
:1020D400026E000E036ED20E1EEC10F0120073EFAF
:1020E40010F0C7B478EF10F07AEF10F073EF10F03F
:1020F400C5CF01F01F0E0116D8A483EF10F085EFB1
:1021040010F073EF10F087EF10F0120082848280D9
:1021140082828292F40E0D6E010E0E6E000E0F6E10
:10212400000E106E63EC11F08282F40E0D6E010E3F
:102134000E6E000E0F6E000E106E63EC11F010ECBC
:1021440012F0120002EE00F011EE00F0EE6AE5501B
:10215400E150FCE1E250FAE101EE00F011EE00F092
:10216400EE6AE550E150FCE1E250FAE100EE7AF06B
:102174000C0EEE6AE806FDE1000EF86E000131EF88
:1021840014F00A6E2A0ED9EC0FF0000ECAEC0FF010
:102194000A50CAEC0FF0000ECAEC0FF00850CAEC5B
:1021A4000FF02B0ED9EC0FF0000ECAEC0FF0075015
:1021B400CAEC0FF0000ECAEC0FF00950CAEC0FF095
:1021C4002C0ED9EC0FF01200176E17C018F0196A14
:1021D400F9EF10F00FC00BF012C00CF013C00DF0AB
:1021E4001850FAEC0FF0184A192AF9EF10F01050B1
:1021F400146E156A1450185C1950800A166E155026
:10220400800A1658D8A009EF11F00BEF11F0ECEF8B
:1022140010F00DEF11F01200176E0FC018F0196ACC
:1022240021EF11F018C00BF012C00CF013C00DF028
:102234001750FAEC0FF0184A192A21EF11F0115037
:10224400146E156A1450185C1950800A166E1550D5
:10225400800A1658D8A031EF11F033EF11F014EFC3
:1022640011F035EF11F012000B6E0150FC0B036EF0
:10227400046AD89003360436D89003360436D890CE
:10228400033604360BC005F0F80E05160550076E2C
:10229400066A035006120450071202C008F0D890D0
:1022A4000832D8900832D890083208500610096EC7
:1022B40007500A6E09C001F00AC002F062EF11F083
:1022C40012000DC001F00EC002F00FC003F010C0E8
:1022D40004F0E80E056E030E066E000E076E000E87
:1022E400086E9AEC11F001C011F002C012F003C0A4
:1022F40013F004C014F081EF11F081EF11F0FF0E20
:102304000D26FF0E0E22FF0E0F22FF0E10220D28A7
:102314000AE10E2808E10F2806E11028D8A495EF59
:1023240011F097EF11F081EF11F099EF11F0120015
:10233400000E096E000E0A6E000E0B6E000E0C6E7F
:10234400A4EF11F001A0A9EF11F0ABEF11F0B5EF7C
:1023540011F00550092606500A2207500B22085096
:102364000C22B5EF11F0D89005360636073608363C
:10237400D8900432033202320132015002100310A9
:102384000410D8A4C8EF11F0CAEF11F0A4EF11F0B3
:1023940009C001F00AC002F00BC003F00CC004F045
:1023A4001200086E04C002F00850EBEC0FF071EC60
:1023B40010F0010EC56EDFEF11F0C5B0E4EF11F0BF
:1023C400E6EF11F0DFEF11F008C0C9FF71EC10F077
:1023D400C586EFEF11F0EFEF11F0C750D8B4F5EF69
:1023E40011F0F8EF11F0010EF9EF11F0000E056E87
:1023F400066A05B000EF12F002EF12F0EFEF11F0F1
:1024040004EF12F0100EC56E71EC10F0040EC56EE0
:10241400C9CF07F007500FEF12F01200010ED9ECEC
:102424000FF0640E0D6E000E0E6E000E0F6E000E99
:10243400106E63EC11F0110ED9EC0FF0F40E0D6E6A
:10244400010E0E6E000E0F6E000E106E63EC11F096
:10245400380ED9EC0FF0F40E0D6E010E0E6E000E58
:102464000F6E000E106E63EC11F0130ED9EC0FF02A
:10247400F40E0D6E010E0E6E000E0F6E000E106E39
:1024840063EC11F0360ED9EC0FF0C80ECAEC0FF065
:102494003A0ED9EC0FF0050ECAEC0FF0290ED9EC68
:1024A4000FF01200406E3950060DF3CF3CF0F4CF1C
:1024B4003DF0000E426E000E416E88EF12F041C0F6
:1024C40001F042C002F03CC003F03DC004F046EC11
:1024D40010F0405001243E6E000E02203F6E36C0C4
:1024E40029F041503A24D96E42503B20DA6EDF5035
:1024F4002A6E37C02BF038C02CF039C02DF03E5076
:102504006EEC17F0414A422A88EF12F041503A2407
:10251400D96E42503B20DA6EDF50D8A494EF12F00B
:1025240096EF12F061EF12F098EF12F01200036EC2
:1025340003C075FFA0EF12F0A0EF12F07350D8B4EF
:10254400A6EF12F0A9EF12F0010EAAEF12F0000E9E
:10255400016E026A01B0B1EF12F0B3EF12F0A0EF16
:1025640012F0ECEF12F0ECEF12F0000E056E070E15
:10257400046E05BEC2EF12F0C0EF12F0C6EF12F007
:10258400ECEF12F0ECEF12F0829C04C001F003C0F7
:1025940002F0012AD0EF12F0D8900232012ECEEFD1
:1025A40012F00230D8B0D9EF12F0DCEF12F08288CA
:1025B400DDEF12F08298828C0406D8A0050605BED1
:1025C400E8EF12F0E6EF12F0C6EF12F0ECEF12F0C3
:1025D400ECEF12F01200FF0E0C14156E070E0D1422
:1025E400166E000E136E000E146E000E126E0DA603
:1025F400FEEF12F000EF13F003EF13F01550152463
:10260400126E0E50155C0F501658D8B00CEF13F024
:102614000EEF13F011EF13F015501524146E0E5035
:10262400155C0F501658D8A01AEF13F01CEF13F0D6
:1026340022EF13F015501524136E15501524146E43
:1026440015C010F016C011F0D890103611361104D0
:10265400D8A02FEF13F031EF13F037EF13F015C0BC
:1026640013F0000E146E37EF13F014C001F012C013
:1026740002F0135036EC11F001C00CF002C00DF062
:1026840044EF13F01200000E066E04BE4EEF13F07A
:102694004CEF13F056EF13F0036C041ED8B0042A69
:1026A400010E066E56EF13F002BE5DEF13F05BEF02
:1026B40013F065EF13F0016C021ED8B0022A010E6C
:1026C400061A65EF13F0000E086E000E076E035035
:1026D4000410D8B470EF13F072EF13F0A6EF13F0F8
:1026E400010E056E7CEF13F0D89003360436052AEC
:1026F4007CEF13F004AE81EF13F083EF13F076EF69
:1027040013F087EF13F087EF13F0D89007360836ED
:102714000350015C04500258D8A093EF13F095EFD6
:1027240013F09CEF13F00350015E0450025A07802B
:102734009CEF13F0D89004320332052E87EF13F088
:10274400A6EF13F0A6EF13F00650D8B4ACEF13F0D5
:10275400AEEF13F0B4EF13F0076C081ED8B0082ADC
:10276400B4EF13F007C001F008C002F0BAEF13F0A1
:1027740012002050236E1FC024F019C007F01B0460
:10278400086E1D04096E1750C3EC10F0829419C032
:1027940021F01AC022F0211E221E214A222A1D5095
:1027A4002124256E1E502220266E26BEE4EF13F04F
:1027B400265006E12504D8B0E2EF13F0E4EF13F05D
:1027C400E8EF13F02FEF14F02FEF14F017C021F0FF
:1027D40018C022F0211E221E214A222A1B50212425
:1027E400276E1C502220286E28BE03EF14F02850B8
:1027F40006E12704D8B001EF14F003EF14F007EF5B
:1028040014F01FEF14F01FEF14F0235099EC12F0A2
:10281400245099EC12F02706D8A0280628BE1DEFF4
:1028240014F0285006E12704D8B01BEF14F01DEF74
:1028340014F007EF14F01FEF14F02506D8A02606B5
:1028440026BE2FEF14F0265006E12504D8B02DEF54
:1028540014F02FEF14F0E8EF13F082841200400E0E
:102864009B6E700ED36E949482880BEC10F0E2ECA5
:102874000FF0D1EC0FF0F40E0D6E010E0E6E000E83
:102884000F6E000E106E63EC11F088EC10F05BEC30
:1028940010F08298F40E0D6E010E0E6E000E0F6E87
:1028A400000E106E63EC11F0000E186E000E176E21
:1028B400000E1A6E000E196E000E1C6EA00E1B6E1A
:1028C400000E1E6EA00E1D6EF20EF66E3F0EF76E1B
:1028D4000900F5CF1FF00A00F5CF20F0BBEC13F090
:1028E400828875EF14F0800E096E010E0A6ED3EC27
:1028F40015F0800E096E010E0A6E000E0B6E010EAD
:102904000C6E800E0D6E020E0E6E000E0F6E020E19
:10291400106EFEEC19F0800E0001606F010E616F05
:10292400000E626F010E636F800E646F020E656F9E
:10293400000E666F020E676FD1EC1BF075EF14F09A
:1029440075EF14F0A4EF14F000EF00F00EC012F0D5
:10295400136A146A0D34123601E313801250196E8F
:102964001950D8A4B8EF14F0BAEF14F0C4EF14F06F
:10297400000E0C6E000E0D6E000E0E6E36EF15F08E
:1029840036EF15F011C012F0136A146A10341236BF
:1029940001E3138012501A6E1A50D8A4D4EF14F025
:1029A400D6EF14F0E0EF14F0000E0C6E000E0D6E76
:1029B400000E0E6E36EF15F036EF15F0000E166EA3
:1029C400000E176E000E186E1A50890F195E0EC095
:1029D4001AF011501A1A800E1A160D8EFF0E0C16CC
:1029E400FF0E0D16000E0E16108EFF0E0F16FF0EA4
:1029F4001016000E1116180E156E01EF15F0D89072
:102A04001636173618360F500C5C10500D581150EE
:102A14000E58D8A010EF15F012EF15F019EF15F0BD
:102A24000F500C5E10500D5A11500E5A1680D8904B
:102A34000C360D360E36152E01EF15F022EF15F07B
:102A440016C001F017C002F018C003F019C004F05A
:102A54001AC005F037EC15F001C00CF002C00DF0FF
:102A640003C00EF036EF15F012000450D8B43DEF59
:102A740015F03FEF15F04BEF15F001500210031065
:102A8400D8A447EF15F049EF15F05EEF15F04BEFC2
:102A940015F0000E016E000E026E000E036ED2EFF2
:102AA40015F0D2EF15F05EEF15F0042AD89003323A
:102AB400023201325EEF15F0000E0114066E000EB4
:102AC4000214076EFE0E0314086E06500710081059
:102AD400D8A46FEF15F071EF15F057EF15F082EFF2
:102AE40015F082EF15F0042A010E0126000E0222D1
:102AF400000E0322D89003320232013282EF15F025
:102B0400000E0114066E000E0214076EFF0E03146D
:102B1400086E065007100810D8A493EF15F095EF2F
:102B240015F075EF15F0A0EF15F0A0EF15F0040601
:102B3400D890013602360336A0EF15F002BEA5EF99
:102B440015F0A7EF15F0B1EF15F0020E0460ADEF2C
:102B540015F0AFEF15F099EF15F0B1EF15F004B0E3
:102B6400B6EF15F0B8EF15F0BBEF15F0029EBBEF12
:102B740015F0D8900432045003120550D8B4C5EFB0
:102B840015F0C7EF15F0CAEF15F0038ECAEF15F074
:102B940001C001F002C002F003C003F0D2EF15F04F
:102BA4001200000E166E000E156E16BEE3EF15F041
:102BB400165009E1080E155CD8A0E3EF15F0E5EF17
:102BC40015F0E9EF15F092EF16F092EF16F0000E03
:102BD400186E000E176E18BEF9EF15F0185009E1C3
:102BE400080E175CD8A0F9EF15F0FBEF15F0FFEF16
:102BF40015F080EF16F080EF16F017C00BF018C038
:102C04000CF0D8900B360C3615C00DF016C00EF033
:102C14000D3A0E3AF00E0E160D500F0B0E12F00E6A
:102C24000D160B500D24136E0C500E20146EF40E62
:102C3400F66E3F0EF76E0800F5501324046EF50E81
:102C4400F66E3F0EF76E0800F550D3EC11F0116EDE
:102C5400F40EF66E3F0EF76E0800F55013240B6E5B
:102C64000B28046EF50EF66E3F0EF76E0800F55055
:102C7400D3EC11F0126E115012C00BF00C6A0BC0A1
:102C84000CF00B6A0B100F6E0C50106E15C00BF08D
:102C940016C00CF00B1E0C1E0B4A0C2AD8900B36D7
:102CA4000C36D8900B360C36D8900B360C361750A1
:102CB4000B2618500C22D8900B360C36700E0B26AF
:102CC400000E0C220B500924D96E0C500A20DA6E27
:102CD4000FC0DEFF10C0DDFF174A182A18BE7CEFB4
:102CE40016F0185009E1080E175CD8A07CEF16F016
:102CF4007EEF16F0FFEF15F080EF16F0154A162A56
:102D040016BE8EEF16F0165009E1080E155CD8A019
:102D14008EEF16F090EF16F0E9EF15F092EF16F043
:102D2400120020EE03F00950D9260A50DA222E0EA2
:102D3400DF6E0BA2A0EF16F0A2EF16F0ACEF16F0C8
:102D440020EE04F00950D9260A50DA22350EDF6E3F
:102D5400B6EF16F020EE04F00950D9260A50DA2214
:102D6400300EDF6EB6EF16F00CBEBDEF16F0BBEF03
:102D740016F0C9EF16F009C0D9FF0AC0DAFF2D0E0C
:102D8400DF6E0B6C0C1ED8B00C2AD1EF16F009C004
:102D9400D9FF0AC0DAFF200EDF6ED1EF16F00BC0A8
:102DA4000DF00CC00EF00E340E320D320E340E3215
:102DB4000D320DC00BF00EC00CF01F0E0B140F6E75
:102DC400106A10BEEFEF16F0105009E10A0E0F5C06
:102DD400D8A0EFEF16F0F1EF16F011EF17F020EE98
:102DE40001F00950D9260A50DA22310EDF6EFFEFC6
:102DF40016F0F60E0F26FF0E102210BE0DEF17F080
:102E0400105007E10A0E0F5CD8B00BEF17F00DEF6E
:102E140017F0FBEF16F019EF17F019EF17F020EE8B
:102E240001F00950D9260A50DA22200EDF6E20EE76
:102E340002F00950D9260A50DA220F50300FDF6E03
:102E44000BC001F00CC002F0000E046E0A0E036EFB
:102E540045EC13F001C011F002C012F012BE3CEFB9
:102E640017F0125009E10A0E115CD8A03CEF17F0DC
:102E74003EEF17F05CEF17F009C0D9FF0AC0DAFF84
:102E8400310EDF6E4AEF17F0F60E1126FF0E1222F6
:102E940012BE58EF17F0125007E10A0E115CD8B0B9
:102EA40056EF17F058EF17F046EF17F05CEF17F0F6
:102EB4005CEF17F020EE01F00950D9260A50DA220F
:102EC4001150300FDF6E20EE05F00950D9260A505C
:102ED400DA22000EDF6E1200336E33C017F0186A68
:102EE40029C019F01A6A2D50050D3350F3241B6EB6
:102EF400000EF4201C6E2D50070D2950F3241D6E76
:102F0400000EF4201E6E000E206E000E1F6EBBEC31
:102F140013F0000E356E040E356493EF17F095EF41
:102F240017F099EF17F051EF18F051EF18F0530E16
:102F34002A609FEF17F0A1EF17F0BCEF17F0E00E37
:102F44002A24016E026AFF0E0222000E046E050E90
:102F5400036E46EC10F035500126000E0222030EDB
:102F64000124F66E3E0E0220F76E0800F5CF32F013
:102F7400D7EF17F0AD0E2A24016E026AFF0E02226B
:102F8400000E046E050E036E46EC10F0355001265B
:102F9400000E0222020E0124F66E3F0E0220F76E8E
:102FA4000800F5CF32F0D7EF17F0000E346E060E9E
:102FB4003464DFEF17F0E1EF17F0E5EF17F046EFB9
:102FC40018F046EF18F032A0EAEF17F0ECEF17F024
:102FD40039EF18F02D04D8A4F2EF17F0F4EF17F03E
:102FE40001EF18F0295034240B6E2BC00CF02CC0C8
:102FF4000DF033503524FAEC0FF039EF18F035505A
:103004002D023350F324176E000EF420186E345042
:103014002D022950F324196E000EF4201A6E355037
:103024002D0233502E6E2F6AF3502E26F4502F2289
:103034002D502E241B6E000E2F201C6E34502D029A
:103044002950306E316AF3503026F45031222D501D
:1030540030241D6E000E31201E6E2BC01FF02CC0BC
:1030640020F0BBEC13F039EF18F039EF18F0342AE4
:10307400D8903232060E346442EF18F044EF18F060
:10308400E5EF17F046EF18F0352A040E35644DEFDE
:1030940018F04FEF18F099EF17F051EF18F01200F5
:1030A400C350C4CF49F04A6A49C04AF0496A49103A
:1030B400556E4A50566E730E0C6E190E0D6E440EFC
:1030C4000E6E55C049F056C04AF0491E4A1E494A80
:1030D4004A2A000E4924096E040E4A200A6E32EC74
:1030E40010F009C00FF00AC010F00BC011F0A8ECEA
:1030F40014F00CC04CF00DC04DF00EC04EF0C25098
:103104000209C26E48BE8EEF18F0080E485CD8A0C3
:103114008EEF18F090EF18F098EF18F0000E4710AB
:10312400476EF80E4810486E98EF18F04F0E096E6F
:10313400000E0A6E47C00BF048C00CF093EC16F07A
:10314400640E366EEC0EF66E3F0EF76E0900F5CF88
:1031540037F00A00F5CF38F0020E396E4F0E3A6E92
:10316400000E3B6E020E54EC12F043C001F044C05A
:1031740002F0EE0EF66E3F0EF76E0900F5CF03F087
:103184000A00F5CF04F046EC10F0D8900134576EE5
:103194000234586E45C001F046C002F0EE0EF66EE1
:1031A4003F0EF76E0900F5CF03F00A00F5CF04F0E7
:1031B40046EC10F0D8900134596E02345A6EEE0E7B
:1031C400F66E3F0EF76E0900F5CF01F00A00F5CF59
:1031D40002F0000E046E020E036E45EC13F0015073
:1031E4005924496E49040F6EEE0EF66E3F0EF76ECB
:1031F4000800F5CF4AF0D8904A345724106EEE0EEA
:10320400F66E3F0EF76E0900F5CF01F00A00F5CF18
:1032140002F0000E046E020E036E45EC13F0015032
:1032240059244B6E4B04116EEC0EF66E3F0EF76E86
:103234000900F5CF12F00A00F5CF13F0EE0EF66E8A
:103244003F0EF76E0800F55000085724E6EC10F026
:10325400EE0EF66E3F0EF76E0900F5CF01F00A0090
:10326400F5CF02F0000E046E020E036E45EC13F06F
:10327400015059240F6EEE0EF66E3F0EF76E0800E5
:10328400F5CF49F0D89049345724106EEE0EF66EFF
:103294003F0EF76E0900F5CF01F00A00F5CF02F0FA
:1032A400000E046E020E036E45EC13F00150592417
:1032B400116EEC0EF66E3F0EF76E0900F5CF12F0AC
:1032C4000A00F5CF13F0EE0EF66E3F0EF76E08000F
:1032D400F55000085724E6EC10F0EE0EF66E3F0EA3
:1032E400F76E0800F550000859240F6EEE0EF66EC6
:1032F4003F0EF76E0900F5CF01F00A00F5CF02F09A
:10330400000E046E020E036E45EC13F001505724B8
:10331400496E4904106EEE0EF66E3F0EF76E08000D
:10332400F5CF4AF0D8904A345924116EEC0EF66E5B
:103334003F0EF76E0900F5CF12F00A00F5CF13F037
:10334400EE0EF66E3F0EF76E0900F5CF01F00A009F
:10335400F5CF02F0000E046E020E036E45EC13F07E
:10336400015057244B6E4B040EEC11F0EE0EF66E2A
:103374003F0EF76E0800F550000859240F6EEE0E4C
:10338400F66E3F0EF76E0900F5CF01F00A00F5CF97
:1033940002F0000E046E020E036E45EC13F00150B1
:1033A4005724106EEE0EF66E3F0EF76E0800F5CF42
:1033B40049F0D89049345924116EEC0EF66E3F0E44
:1033C400F76E0900F5CF12F00A00F5CF13F0EE0EF8
:1033D400F66E3F0EF76E0900F5CF01F00A00F5CF47
:1033E40002F0000E046E020E036E45EC13F0015061
:1033F40057240EEC11F01200000E1E6E000E1D6E0E
:103404001EBE0EEF1AF01E5009E1080E1D5CD8A076
:103414000EEF1AF010EF1AF014EF1AF0D0EF1BF0C1
:10342400D0EF1BF0000E206E000E1F6E20BE24EFA6
:103434001AF0205009E1080E1F5CD8A024EF1AF0FE
:1034440026EF1AF02AEF1AF0BEEF1BF0BEEF1BF0C6
:1034540020BE35EF1AF0205008E11F04D8A035EF44
:103464001AF037EF1AF0A7EF1AF01DC011F01EC0C2
:1034740012F0D89011361236D89011361236D890F0
:10348400113612361F50112620501222D8901136B0
:10349400123611500924D96E12500A20DA6EDECF8A
:1034A40013F0DDCF14F0FE0E156EFF0E166E1DC068
:1034B40017F01EC018F0D89017361836D890173663
:1034C4001836D890173618361F5017262050182251
:1034D400D89017361836155017261650182217503C
:1034E4000924D96E18500A20DA6EDECF19F0DDCF28
:1034F4001AF013501924016E14501A20026E000E93
:10350400046E020E036E45EC13F01DC01BF01EC0CA
:103514001CF0D8901B361C36D8901B361C36D8901D
:103524001B361C361F501B2620501C22D8901B36DD
:103534001C361B500B24D96E1C500C20DA6E01C0B3
:10354400DEFF02C0DDFFA7EF1AF01EBEB2EF1AF0D5
:103554001E5008E11D04D8A0B2EF1AF0B4EF1AF01F
:1035640024EF1BF01DC011F01EC012F0D8901136CC
:103574001236D89011361236D890113612361F50A2
:10358400112620501222D8901136123611500924D7
:10359400D96E12500A20DA6EDECF13F0DDCF14F0AC
:1035A400F00E156EFF0E166E1DC017F01EC018F03B
:1035B400D89017361836D89017361836D89017364C
:1035C40018361F50172620501822D8901736183650
:1035D400155017261650182217500924D96E185062
:1035E4000A20DA6EDECF19F0DDCF1AF01350192459
:1035F400016E14501A20026E000E046E020E036E49
:1036040045EC13F01DC01BF01EC01CF0D8901B36F7
:103614001C36D8901B361C36D8901B361C361F50CF
:103624001B2620501C22D8901B361C361B500D2400
:10363400D96E1C500E20DA6E01C0DEFF02C0DDFF21
:1036440024EF1BF01EBE32EF1BF01E5007E1080EE4
:103654001D5CD8B030EF1BF032EF1BF0ACEF1BF069
:1036640020BE40EF1BF0205007E1080E1F5CD8B0CD
:103674003EEF1BF040EF1BF0ACEF1BF01DC011F050
:103684001EC012F0D89011361236D8901136123668
:10369400D890113612361F50112620501222D8907D
:1036A40011361236120E1126000E12221150092460
:1036B400D96E12500A20DA6EDECF13F0DDCF14F08B
:1036C4001DC015F01EC016F0D89015361636D890C9
:1036D40015361636D890153616361F501526205036
:1036E4001622D8901536163615500924D96E165060
:1036F4000A20DA6EDECF17F0DDCF18F0135017244E
:10370400016E14501820026E000E046E020E036E39
:1037140045EC13F01DC019F01EC01AF0D8901936EC
:103724001A36D89019361A36D89019361A361F50C8
:10373400192620501A22D89019361A3619500F24F7
:10374400D96E1A501020DA6E01C0DEFF02C0DDFF10
:10375400ACEF1BF01F4A202A20BEBAEF1BF020500A
:1037640009E1080E1F5CD8A0BAEF1BF0BCEF1BF0F8
:103774002AEF1AF0BEEF1BF01D4A1E2A1EBECCEF24
:103784001BF01E5009E1080E1D5CD8A0CCEF1BF005
:10379400CEEF1BF014EF1AF0D0EF1BF0120020EE66
:1037A4007EF0DECF5BF0DDCF5CF05B1E5C1E5B4A1F
:1037B4005C2A000184515B2685515C227E515B2486
:1037C4006E6F7F515C206F6F000E856F000E846FEB
:1037D400070E7F6F7E69000E776F000E766F77BFDE
:1037E400FDEF1BF0775109E1080E765DD8A0FDEFDF
:1037F4001BF0FFEF1BF003EF1CF0F2EF1EF0F2EFF3
:103804001EF0000E796F000E786F79BF13EF1CF075
:10381400795109E1080E785DD8A013EF1CF015EF7B
:103824001CF019EF1CF0E0EF1EF0E0EF1EF076C084
:103834005BF077C05CF0D8905B365C36D8905B3632
:103844005C36D8905B365C3678515B2679515C22C5
:10385400D8905B365C365B506025D96E5C50612134
:10386400DA6EDECF70F0DDCF71F076C05BF077C03A
:103874005CF0D8905B365C36D8905B365C36D8907A
:103884005B365C3678515B2679515C22D8905B3686
:103894005C365B506225D96E5C506321DA6EDECFF4
:1038A40068F0DDCF69F076C05BF077C05CF0D8904B
:1038B4005B365C36D8905B365C36D8905B365C36CB
:1038C40078515B2679515C22D8905B365C365B502C
:1038D4006425D96E5C506521DA6EDECF6AF0DDCFE7
:1038E4006BF076C05BF077C05CF0D8905B365C36EA
:1038F400D8905B365C36D8905B365C3678515B2664
:1039040079515C22D8905B365C365B506625D96E63
:103914005C506721DA6EDECF6CF0DDCF6DF0D890AD
:103924007635726F7735736FD8907835746F7935D3
:10393400756F72C001F073C002F0EE0EF66E3F0EAA
:10394400F76E0900F5CF03F00A00F5CF04F046EC5A
:1039540010F001C017F002C018F074C001F075C077
:1039640002F0EE0EF66E3F0EF76E0900F5CF03F08F
:103974000A00F5CF04F046EC10F001C019F002C0C3
:103984001AF0EE0EF66E3F0EF76E0900F5CF5BF0FF
:103994000900F5CF5CF072C001F073C002F0EE0EC6
:1039A400F66E3F0EF76E0900F5CF03F00A00F5CF6F
:1039B40004F046EC10F05B5001241B6E5C500220B6
:1039C4001C6EEE0EF66E3F0EF76E0900F5CF5DF03D
:1039D4000900F5CF5EF074C001F075C002F0EE0E80
:1039E400F66E3F0EF76E0900F5CF03F00A00F5CF2F
:1039F40004F046EC10F05D5001241D6E5E50022070
:103A04001E6E70C00CF071C00DF06EC00EF06FC071
:103A14000FF0EDEC12F00CC01FF00DC020F0BBEC69
:103A240013F0010E00017225016E000E7321026E67
:103A3400EE0EF66E3F0EF76E0900F5CF03F00A00A6
:103A4400F5CF04F046EC10F001C017F002C018F0F6
:103A540074C001F075C002F0EE0EF66E3F0EF76E04
:103A64000900F5CF03F00A00F5CF04F046EC10F09E
:103A740001C019F002C01AF0EE0EF66E3F0EF76E9A
:103A84000900F5CF5BF00900F5CF5CF0010E0001F1
:103A94007225016E000E7321026EEE0EF66E3F0E5D
:103AA400F76E0900F5CF03F00A00F5CF04F046ECF9
:103AB40010F05B5001241B6E5C5002201C6EEE0E55
:103AC400F66E3F0EF76E0900F5CF5DF00900F5CFF5
:103AD4005EF074C001F075C002F0EE0EF66E3F0E9B
:103AE400F76E0900F5CF03F00A00F5CF04F046ECB9
:103AF40010F05D5001241D6E5E5002201E6E68C0E1
:103B04000CF069C00DF06EC00EF06FC00FF0EDEC5C
:103B140012F00CC01FF00DC020F0BBEC13F072C00B
:103B240001F073C002F0EE0EF66E3F0EF76E090060
:103B3400F5CF03F00A00F5CF04F046EC10F001C015
:103B440017F002C018F0010E00017425016E000E7A
:103B54007521026EEE0EF66E3F0EF76E0900F5CF7C
:103B640003F00A00F5CF04F046EC10F001C019F0A0
:103B740002C01AF0EE0EF66E3F0EF76E0900F5CF96
:103B84005BF00900F5CF5CF072C001F073C002F085
:103B9400EE0EF66E3F0EF76E0900F5CF03F00A0045
:103BA400F5CF04F046EC10F05B5001241B6E5C5022
:103BB40002201C6EEE0EF66E3F0EF76E0900F5CF76
:103BC4005DF00900F5CF5EF0010E00017425016E71
:103BD400000E7521026EEE0EF66E3F0EF76E0900B2
:103BE400F5CF03F00A00F5CF04F046EC10F05D5079
:103BF40001241D6E5E5002201E6E6AC00CF06BC064
:103C04000DF06EC00EF06FC00FF0EDEC12F00CC0B2
:103C14001FF00DC020F0BBEC13F0010E0001722563
:103C2400016E000E7321026EEE0EF66E3F0EF76EFD
:103C34000900F5CF03F00A00F5CF04F046EC10F0CC
:103C440001C017F002C018F0010E00017425016EC6
:103C5400000E7521026EEE0EF66E3F0EF76E090031
:103C6400F5CF03F00A00F5CF04F046EC10F001C0E4
:103C740019F002C01AF0EE0EF66E3F0EF76E090050
:103C8400F5CF5BF00900F5CF5CF0010E0001722561
:103C9400016E000E7321026EEE0EF66E3F0EF76E8D
:103CA4000900F5CF03F00A00F5CF04F046EC10F05C
:103CB4005B5001241B6E5C5002201C6EEE0EF66EEF
:103CC4003F0EF76E0900F5CF5DF00900F5CF5EF009
:103CD400010E00017425016E000E7521026EEE0EB8
:103CE400F66E3F0EF76E0900F5CF03F00A00F5CF2C
:103CF40004F046EC10F05D5001241D6E5E5002206D
:103D04001E6E6CC00CF06DC00DF06EC00EF06FC076
:103D14000FF0EDEC12F00CC01FF00DC020F0BBEC66
:103D240013F000017051845D8551800A5B6E7151FE
:103D3400800A5B58D8B0A1EF1EF0A3EF1EF0B1EFDC
:103D44001EF076C080F077C081F078C082F079C030
:103D540083F070C084F071C085F0B1EF1EF07E5125
:103D6400705D7151800A5B6E7F51800A5B58D8B0D8
:103D7400BEEF1EF0C0EF1EF0CEEF1EF076C07AF05C
:103D840077C07BF078C07CF079C07DF070C07EF0A5
:103D940071C07FF0CEEF1EF0784B792B79BFDCEF4A
:103DA4001EF0795109E1080E785DD8A0DCEF1EF011
:103DB400DEEF1EF019EF1CF0E0EF1EF0764B772BD0
:103DC40077BFEEEF1EF0775109E1080E765DD8A0BB
:103DD400EEEF1EF0F0EF1EF003EF1CF0F2EF1EF01A
:103DE40080C043F081C044F082C045F083C046F0F7
:103DF40084C047F085C048F052EC18F0120000006F
:103E04000000000000005F00000007000700147FAE
:103E1400147F14242A7F2A12231308646236495615
:103E240020500008070300001C2241000041221C0E
:103E3400002A1C7F1C2A08083E08080080703000F5
:103E44000808080808000060600020100804023E0A
:103E54005149453E00427F4000724949494621414B
:103E6400494D331814127F1027454545393C4A49BA
:103E740049314121110907364949493646494929F9
:103E84001E00001400000040340000000814224109
:103E94001414141414004122140802015909063E92
:103EA400415D594E7C1211127C7F494949363E418D
:103EB4004141227F4141413E7F494949417F0909AE
:103EC40009013E414151737F0808087F00417F4149
:103ED400002040413F017F081422417F4040404080
:103EE4007F021C027F7F0408107F3E4141413E7FD8
:103EF400090909063E4151215E7F091929462649CF
:103F040049493203017F01033F4040403F1F2040A5
:103F1400201F3F4038403F631408146303047804AF
:103F2400036159494D43007F414141020408102077
:103F3400004141417F0402010204404040404000EE
:103F44000307080020545478407F284444383844F8
:103F5400444428384444287F385454541800087E74
:103F6400090218A4A49C787F0804047800447D40C6
:103F7400002040403D007F1028440000417F400065
:103F84007C047804787C080404783844444438FC7D
:103F94001824241818242418FC7C08040408485401
:103FA40054542404043F44243C4040207C1C2040BE
:103FB400201C3C4030403C44281028444C909090B5
:103FC4007C4464544C4400083641000000770000EF
:103FD40000413608000201020402AAFFF0F00F0FAC
:103FE40000F99F0090090FF0FFFF06000700000092
:033FF40080D30077
:083FF800A8F7DAFFFFF9CFF191
:00000001FF
